:03000000020B08E8
:03000300022003D5
:03000B0002200BC5
:08001300308A030220130145AD
:03001B0002201BA5
:0300230002202395
:03002B0002202B85
:10003000A188A180C183C1E5C1F2A1DEC104A19064
:10004000C1C30202E9C0D0C0E0C2D3C2D4B180D1E2
:10005000C3B40D020193B42002212EB43F04313306
:10006000014DB45111C082C083900F08D1F2D083EA
:10007000D082C2AA212EB448043152014DB452029A
:10008000219BB453024131B441024167014D743D9B
:10009000B18822E8C0E0D1DC7453B1887450B188D3
:1000A000118EA881C0F0D18318D1DC120AE8118E1C
:1000B000E6D18318D1DC120AEE118EE6A2E7E43312
:1000C000D18DD1DC120AF9118EE583D183E582D17D
:1000D00083E43143A88118E6D18374013143E9D127
:1000E0008374023143EAD18374033143EBD18374C7
:1000F000043143ECD18374053143EDD1837406316F
:1001000043EED18374073143EFD183B1A1D1DC74C5
:1001100050B188120AEE118EC3E5819404F8C082B2
:10012000C083120BA5D083D082D0F0D0E0F8D0E00D
:10013000D0D032C082C083B1A1901109D1F2D08356
:10014000D08222C0E0D1DC7452B188D0E0D18D11D0
:100150008E22C000C001C0F0C082C083900ED3D1F7
:10016000F2D083D082E4D183743AB188D1DCE8D173
:1001700083D1DCE9D1837802790E2185E8D18374BB
:100180003AB1887910D1DCE6D18308D9F8B1A1B8A9
:1001900080EAB1A1D0F0D001D00022C0F0D1DC744F
:1001A00042B188118EE5F0D183D1DC7450B18874EE
:1001B00053B1887457B188118EE8C0E0A88118182F
:1001C00018E6D183D1DCC082C083900C81A8A851ED
:1001D00027900C84A8B85127900C87A889512790A4
:1001E0000C8CA8885127900C91A8985127900C96B8
:1001F000A88751277454B1887430B188118EE58C6A
:10020000D183E58AD183D1DC7454B1887431B1884B
:10021000118EE58DD183E58BD183B1A1D083D082BE
:10022000D0E0F8D0F0014DD1F2118EE8D183D1DCCD
:1002300022C0F0E8C0E0E581C39404F8C082C08326
:10024000900EB1D1F2120BA5E581C39406F8A683F6
:1002500018A682900EC2D1F208120BA5D083D082CC
:10026000D0E0F8D0F0014DE8C0E0C0F0A881181847
:10027000C082C083900EF8D1F2B1DE400EF6B1A17B
:10028000D083D082D0F0D0E0F8014D9008ABD1F20D
:10029000D083D082D0F0D0E0F8014DC082C08390EE
:1002A0000D40D1F2B180B41B0A900D89D1F2D083F8
:1002B000D08222B43AEEB1DE40EFF8B1DE40EAF58A
:1002C00083B1DE40E4F582B1DE40DEB4010A900D78
:1002D000A4D1F2D083D082220841E1B1DE40CAF03D
:1002E000A3D8F8B1DE40C241A44387807589117557
:1002F0009850438852E57BA97AAA79AB7863015577
:100300006302CC63031DB50108B50205B503028085
:1003100048C28E758D00758B0020B0FD20B0F22094
:10032000B0EF20B0EC20B0E930B0FDD28E20B0FDAF
:1003300030B0FD20B0FD30B0FDC28EE58B33E58DD1
:1003400033F404F5F0F57B6455F57AE5F064CCF50B
:1003500079E5F0641DF578E5F0F58D758921D28E8B
:1003600022C082C083900FECD1F2900F3DE49360E5
:1003700029A3D1DCB1887804D1DCD8FCE493F5F072
:10038000A3E493A3A3A3C082C083F58285F083E492
:10039000D1F2B1A1D083D08280D4901017D1F2D005
:1003A00083D08222C082C083900812D1F2B180D162
:1003B000C3B41B0A9008ABD1F2D083D08222B43FE1
:1003C00023901035D1F290083FD1F2B180B41B05D3
:1003D000D083D08222901086D1F2901109D1F2D030
:1003E00083D08222B45307900DE8D1F28133900D6F
:1003F000BDD1F290084FD1F2D083D082D1E5C08236
:10040000C0839007E8D1F2D083D082D10450069007
:1004100008ABD1F222740DB188C082C083900DCA9E
:10042000D1F2D083D0827400C0E07400C0E0C082FA
:10043000C0832290084FD1F2D083D082C082C08383
:10044000D1E59007E8D1F2D083D082D104C082C038
:1004500083500C9008ABD1F2B1A1D083D08222C2DC
:100460008A30B30A900E00D1F2D083D08222900855
:100470006CD1F2B180D1C3B41B0A9008ABD1F2D0D9
:1004800083D08222B44C0575B800800375B80490FF
:100490000E76D1F2D083D0827581387400C0E074BA
:1004A00000C0E0E4C3780079017A007B007C007D25
:1004B000007E007F00C28AD2B375A884737A10B11F
:1004C000A17820D1E5743AB1887420B188E493F61C
:1004D000D1837420B188A308B830F2B1887820E6BF
:1004E000547FF5F0C39420500375F020E5F0B188F7
:1004F00008B830EBB1A1B1904002DAC5B1A122C079
:1005000083C082B1A19007F4D1F2D082D083C0839E
:10051000C082D104B1A14007B1A1D0E0D0E02290C7
:1005200008ABD1F2D082D083B1A122C082C0839027
:100530000CEBD1F2D083D082D1E5743AB188D1DC12
:100540007428B188E0D183C082C08390089CD1F226
:10055000B1DE20D50C400AD083D082F0B1A1A3A196
:1005600038900D12D1F2D083D082227A12B1A1EA52
:10057000C0E0F11BD0E0FAB1904002DAF2B1A12262
:100580003098FDC298E599223099FDF599C29922DB
:10059000C0E0C3309808E599B41B03D3C298D0E0FB
:1005A00022C0E0740DB188D0E022B180D1C3C3C2B3
:1005B000D5C2D2B40D03D2D522B41B02B322B408E3
:1005C00003D2D222B47F0280F8C0F0F5F0D1A5406A
:1005D00009C5F0B188C5F0D0F022D0F080CCB1AA26
:1005E00030D50122500122C4F5F0B1AA20D20F303B
:1005F000D506C2D5E5F0C42250012245F022740888
:10060000B18880DAC0E0E8C0E0E9C0E0EAC0E0EB31
:10061000C0E0B1AAF8405D20D55A20D2F5B1AAF9C0
:10062000405220D52B30D2067408B18880E4B1AA9C
:10063000FA404120D52130D2067408B18880DEB15D
:10064000AAFB403020D51A30D2207408B18880DE51
:100650007583008882801D758300E8C449F5828017
:10066000138883E9C44AF582800AE8C449F583EA1D
:10067000C44BF582D0E0FBD0E0FAD0E0F9D0E0F84E
:10068000D0E022C0E0C4D18DD0E0D18D22540F241F
:100690000383B1882230313233343536373839412B
:1006A0004243444546C3C0F09430F5F0940A4006F6
:1006B000E5F09407F5F0E5F0C354F06001D3E5F000
:1006C000D0F022C0F0F5F0C39461400B941A5007AB
:1006D000C3E5F09420F5F0E5F0D0F022C0E07420FE
:1006E000B188D0E022C0E0E583D183E582D183D018
:1006F000E022C0E0E4932098156010A2E7547F3018
:1007000099FDF599C2994003A380E9D0E022C298EF
:10071000E599B41BDF740DB18880F0D1E5E493A3B3
:10072000FBC083C082900C9B93FAEB900CDB93FE92
:1007300054FC0303FFEE5403D082D083FE14600FF9
:10074000C0E0E493A3FCD0E0146004E493A3FDF1C3
:1007500081C082C083900C0BF1A9EFF8D0E0D0F0FB
:10076000C0F0C0E0FEE5F0FFE814C33375F07AC0D6
:10077000F075F007C0F09008BF73D083D082B1A1AC
:1007800022743AB188D1DCEBD183D1DCBE0104798B
:100790000B8011ECD183D1DCBE020479088005ED19
:1007A000D1837906D1DCD9FC227808EA930A18A211
:1007B000E7547FB188400280F2D1DCD8FC223E4C65
:1007C0006F633D003A202856657273696F6E203161
:1007D0002E302920436F6D6D616E643E004C6F6357
:1007E0006174696F6E2028003D44656661756C74A4
:1007F000293A20004E6577206D656D6F7279207003
:100800006F696E746572206C6F636174696F6E3AA4
:1008100020000D533D53696E676C652053746570FD
:100820002C204E3D4E6F726D616C202864656661B0
:10083000756C74292C203F3D48656C70203E00503B
:100840007265737320616E79206B65793A20000DB3
:100850000D52756E2066726F6D206D656D6F7279C9
:10086000206C6F616374696F6E2028000D0D496EF6
:1008700074657272757074207072696F72697479C0
:100880003E204C3D4C6F772C20483D4869676820DE
:100890002864656661756C74293A20002920204E11
:1008A00065772056616C75653A20002020436F6D96
:1008B0006D616E642041626F72746564210D002168
:1008C000A521B721BC21C121C621D121D821DE21FA
:1008D000E521F121FC4108410C4110411341164131
:1008E00019411C411F4127412E41324135413841B8
:1008F0003C413F4199414B41524159415D41644125
:1009000073417A41814188418C419341A241B04178
:10091000C341CA41D27452120588EB540712068DA6
:100920002274401205887452120588EB5401120695
:100930008D22EC20E705EC12068322900C63E493F1
:10094000A360F3F8C39C70041206F222E493A33070
:10095000E7FA80EAEC547823C4F8EC5480601590F0
:100960000CCBE893900C3C3582F582500205831243
:1009700006F28006E82420120683742E120588EC05
:10098000540712068D22EC20E708C33FFF500D0EDE
:10099000800AF404FCEFC39CFF50011EEE12068394
:1009A000EF12068322EE54F8F8EBC4035407481202
:1009B0000683EC1206832251F431152251F43132B0
:1009C0002251F431212251E851D951E2EC1206832F
:1009D00022313251D951E8223132EDFC21C851EE99
:1009E00051D931542251EE51D9742F120588315406
:1009F0002251F4313251D9EDFC31862251E851D9DE
:100A000051E2EC12068321F5311521FE312121FE40
:100A100051E82251EE223154223132223121225129
:100A2000E8744212058822311551D93186223132BB
:100A300021F531152251F922315421F53186225107
:100A4000D351E8742B12058851F922311551D9512F
:100A5000E822311551D9313222311521C8313251B4
:100A6000D9311522ECC0E0EDFC313251D9D0E0FC97
:100A7000313222313251D9312122312151D951E83B
:100A800022312151D9313222312121C8315451D959
:100A900051EE2251F951D951E2EC120683ED1206C2
:100AA000832251F451D351E8742B12058851F92255
:100AB00051F451D351E8742B1205887450120588F3
:100AC00051EE2251F451D351F92251D351F951D958
:100AD00051E822744012058822742C1205881206EF
:100AE000DC22742312058822744112058822744383
:100AF0001205882251E851D922C083C082900F3854
:100B00001206F2D082D08322758130C2D3C2D412B1
:100B100002E9D299C29878081205A1D8FE900BD8A4
:100B20001206F2902000C082C0839007BE1206F227
:100B3000D083D0821206E5C082C0839007C412061B
:100B4000F21205801206C3F520900F3DE493604B2E
:100B5000B52040A3E493C0E0A3E493D0F0C082C0EA
:100B600083F58285F0831206F21205A1D083D0822C
:100B7000A3E493F522E4A393F521D023D024900B92
:100B800026C082C083852482852383C021C022227F
:100B9000020B26A3A3A3A3A3020B4CD083D08212E3
:100BA00005A1020B26E9C0E0EAC0E0EBC0E0ECC022
:100BB000E0EDC0E0EEC0E0EFC0E086831886821270
:100BC000071BD0E0FFD0E0FED0E0FDD0E0FCD0E09D
:100BD000FBD0E0FAD0E0F9220D2020200D202020CB
:100BE00020202020200C57656C636F6D6520746F8A
:100BF00020746865206E657720616E6420706F7365
:100C00007369626C79206576656E204143414CCCF6
:100C10004144C420414444C3414A4DD0414ECC4399
:100C20004A4EC5434CD2535542C2535741D0584304
:100C3000C8584348C45852CC3F3FBF0050B05443FB
:100C40004FCE50B153434FCE50B249C550B349D0A7
:100C500043B05432434FCE5053D744B84143C3FD01
:100C6000C2FE00E04143C38153D0824450CC834450
:100C700050C88D5448B18B544CB1F0C2D05053D7AA
:100C8000A849C5B849D089544D4FC48854434FCE64
:100C90009853434FCE8750434FCE005A0E48732B84
:100CA0002B2B2B2B2B2B2B2B2B2B2B8F8F8F8F8FA0
:100CB0008F8F8F3E005D354C4C4C4C4C4C4C4C4C0B
:100CC0004C4C4C4C4C4C4C4C4C4C4C000206080CC4
:100CD0000E101214161B1E20232425AD066F393961
:100CE00046494971717171717171710D4564697411
:100CF000696E672045787465726E616C2052414D53
:100D00002E2E2E3C4553433E20746F20717569741E
:100D10000D00202045646974696E672066696E69FC
:100D2000736865642C2074686973206C6F636174E8
:100D3000696F6E20756E6368616E6765640D0D0086
:100D40000D0D426567696E20617363696920747275
:100D5000616E736D697373696F6E206F6620496E83
:100D600074656C2048455820666F726D617420660A
:100D7000696C652C206F72203C4553433E20746F94
:100D80002061626F72740D0D00446F776E6C6F613D
:100D9000642061626F727465642062792075736586
:100DA000720D0D000D0D0D0D446F776E6C6F61644B
:100DB00020636F6D706C657465640D0D0052756E07
:100DC000206E6F726D616C6C79000D4E6F772072C2
:100DD000756E6E696E67207468652070726F6772D9
:100DE000616D2E2E2E0D0D0052756E20696E2073D2
:100DF000696E676C652073746570206D6F64650043
:100E00000D0D5468652073696E676C652073746599
:100E1000702072756E2066656174757265207769E1
:100E20006C6C206E6F742066756E6374696F6E20D3
:100E3000756E6C65737320494E5431202870696E4D
:100E400020233133292069730D636F6E6E656374DF
:100E5000656420746F2067726F756E64206F7220F6
:100E60006F74686572776973652068656C64206C5F
:100E70006F772E0D0D000D4E6F772072756E6E69B7
:100E80006E6720696E2073696E676C652073746588
:100E900070206D6F64653A20203C5245543E3D649D
:100EA000656661756C742C203F3D48656C700D0D56
:100EB00000536B697070696E67202D2D2D2D2D2DBF
:100EC0003E004E6578742077696C6C206265202D39
:100ED0002D3E000D4C6F633A2020496E7465726E92
:100EE000616C2052616D204D656D6F727920436F8A
:100EF0006E74656E74730D004E65772041636320D8
:100F000056616C75653A20000D51756974207369DE
:100F10006E676C652073746570206D6F64652C203E
:100F20006E6F772072756E6E696E67206E6F726D70
:100F3000616C6C792E0D0D0044505452003F0FB679
:100F40000361520F6103A4440FBF029B4E0F6E0456
:100F5000FF480F8304BD4C0FA2056B450FD9052B2D
:100F6000002052756E2070726F6772616D00204EA6
:100F70006577206D656D6F7279206C6F6361746940
:100F80006F6E00204845582044756D70204D656D8A
:100F90006F727920746F2074686520536372656581
:100FA0006E00204C69737420617373656D626C7997
:100FB00020636F6465002048656C703F3F3F0020F0
:100FC000446F776E6C6F61642070726F6772616DD1
:100FD0002066726F6D20504300204564697420655F
:100FE000787465726E616C2072616D000C54686576
:100FF000736520636F6D6D616E647320617265202F
:1010000063757272656E746C7920737570706F722F
:101010007465643A0D0D006265666F7265207275C5
:101020006E6E696E67207468652070726F6772619A
:101030006D2E0D0D0065786973742C202874686915
:10104000732070726F6772616D206973204652451C
:10105000452C20796F75206B6E6F77290D6F6E2D83
:1010600068616E6420666F72206D656D6F727920A5
:101070006C6F636174696F6E207265666572656E10
:1010800063652E0D0D000C4265747765656E2073E7
:10109000746570732C20746865206D6F6E69746F51
:1010A000722075736573206162736F6C7574656C03
:1010B00079204E4F20696E7465726E616C206F727C
:1010C0002065787465726E616C206D656D6F7279E4
:1010D0002E0D202020202020202020202020547988
:1010E00070696E6720273F272077696C6C206469E0
:1010F00073706C617920746869732068656C702006
:1011000073637265656E0D0D0053696E676C6520C3
:101110005374657020436F6D6D616E64733A0D0D8D
:10112000202027512720202020205175697420532A
:10113000696E676C6520537465702C20636F6E74E4
:10114000696E756520657865637574696E67206E74
:0A1150006F726D616C6C790D0D007B
:00000001FF
